:020000040800F2
:10000000586D01206D020008456A0008A9540008D7
:100010006568000879290008858200080000000052
:10002000000000000000000000000000AD0100081A
:10003000DD2D000800000000090200084D780008CE
:10004000870200088702000887020008870200086C
:10005000870200088702000887020008870200085C
:10006000E52E000887020008F52E00088702000828
:10007000870200088702000887020008870200083C
:1000800087020008870200088702000800000000BD
:10009000000000000000000000000000FB2E00082F
:1000A000870200080D79000887020008870200080F
:1000B00087020008870200088702000887020008FC
:1000C00087020008870200088702000887020008EC
:1000D000870200080D820008870200080000000067
:1000E000D52E0008870200088702000800000000E3
:1000F000000000000000000000000000870200086F
:10010000000000008702000887020008870200083C
:1001100000000000000000000000000000000000DF
:100120008702000887020008C92C0008870200081F
:10013000870200080000000000000000000000002E
:10014000000000000000000000000000870200081E
:10015000D52C000887020008E12C0008870200085F
:10016000870200088702000800000000000000006D
:10017000000000000000000000000000000000007F
:1001800000000000870200080000000000000000DE
:100190008702000887020008DFF80CD001F0D4FFC6
:1001A0000048004789430208586D01202C4B19680C
:1001B0000868B0E8F04F80F30988BFF36F8F4FF005
:1001C000000080F3118870470000000008480068B4
:1001D000006880F308884FF0000080F3148862B64E
:1001E00061B6BFF34F8FBFF36F8F00DF00BF00BF5B
:1001F00008ED00E0DFF80C00016841F470010160D7
:10020000704700BF88ED00E0EFF30980BFF36F8F08
:10021000134B1A681EF0100F08BF20ED108A20E95A
:10022000F04F106009B44FF0500080F31188BFF315
:100230004F8FBFF36F8F2EF07BFE4FF0000080F3E7
:10024000118809BC19680868B0E8F04F1EF0100F5B
:1002500008BFB0EC108A80F30988BFF36F8F704736
:1002600090050020EFF305807047000006488047A6
:1002700006480047FEE7FEE7FEE7FEE7FEE7FEE78B
:10028000FEE7FEE7FEE7FEE7FD78000899010008BB
:100290000146012902D1FD4800687047022902D1B8
:1002A000FA484068F9E7042902D1F8488068F4E781
:1002B000082902D1F548C068EFE7102902D1F348B8
:1002C0000069EAE7202902D1F0484069E5E74029C2
:1002D00002D1EE488069E0E7802902D1EB48C0698D
:1002E000DBE70020D9E70146012902D1E848006890
:1002F0007047022902D1E6484068F9E7042902D193
:10030000E3488068F4E7082902D1E148C068EFE7D4
:10031000102902D1DE480069EAE7202902D1DC4831
:100320004069E5E7402902D1D9488069E0E78029A2
:1003300002D1D748C069DBE70020D9E70FB470B518
:1003400004460899069801F0D5FA054607990598DC
:1003500001F0D0FA0646294601F0C6FACD490860F8
:10036000DDE9060101F0C6FA05460899059801F095
:10037000C1FA0646294601F065FAC649486003C934
:10038000C4E9000170BC5DF814FB2DE9F04F8DB09D
:100390000446002680200B90FF200A9000251CE0D8
:1003A000B5420FDA04EBC60103C9CDE9030104EB42
:1003B000C60004EBC50206CA06C004EBC500DDE9B1
:1003C000031206C00B9F04E0F61B384607EBD07102
:1003D0004F10B742F8DD3E446D1C0A988542DFDBC2
:1003E0004FF480700C900120099002E00998401CA5
:1003F00009900C9800EBD07149100C910129F5D1AE
:1004000089465FE0A9F10100022101FA00FA504695
:100410000AEBD0714FEA610B4FF07E50079000203D
:1004200008905846FFF75FFF05905846FFF730FFEA
:1004300080F00040069000263EE0354631E005EBB6
:100440000B0854F83800019004EBC8004068029093
:100450000898009003A8079BDDE90112FFF76EFFE3
:1004600054F83500039901F03FFA44F8380004EBE2
:10047000C5020499506801F037FA04EBC8014860DE
:1004800054F83500039901F0DDF944F8350004EB28
:10049000C5020499506801F0D5F904EBC501486024
:1004A0005544FF2DCBDD0698009007A8059BDDE99C
:1004B0000712FFF743FF761CABF10100B042BCDA34
:1004C00009F10109099881459CDD0DB0BDE8F08F67
:1004D0002DE9F04F8DB00446002680200B90FF20C0
:1004E0000A9000251CE0B5420FDA04EBC60103C9EF
:1004F000CDE9030104EBC60004EBC50206CA06C041
:1005000004EBC500DDE9031206C00B9F04E0F61BF7
:10051000384607EBD0714F10B742F8DD3E446D1CF2
:100520000A988542DFDB4FF480700C90012009901F
:1005300002E00998401C09900C9800EBD07149101A
:100540000C910129F5D189465FE0A9F10100022152
:1005500001FA00FA50460AEBD0714FEA610B4FF0F6
:100560007E500790002008905846FFF7BCFE05908B
:100570005846FFF78DFE80F00040069000263EE0D2
:10058000354631E005EB0B0854F83800019004EBD8
:10059000C800406802900898009003A8079BDDE916
:1005A0000112FFF7CBFE54F83500039901F09CF9D6
:1005B00044F8380004EBC5020499506801F094F93E
:1005C00004EBC801486054F83500039901F03AF98A
:1005D00044F8350004EBC5020499506801F032F983
:1005E00004EBC50148605544FF2DCBDD0698009013
:1005F00007A8059BDDE90712FFF7A0FE761CABF10B
:100600000100B042BCDA09F10109099881459CDD7D
:100610000DB0BDE8F08F2DE9F04F8DB083464FF05F
:100620000008C14600210C460D460020064607463C
:100630000B900A9082460990089017490860174964
:100640000860174908601749086000BF0BE00020E8
:10065000154901F80800154901F80800144941F846
:10066000280008F10108B8F1210FF0DB11480068FB
:100670001E282EDABBF1000F20DACBF100000E4964
:100680000C4A126841F822001DE00000000800201A
:1006900020080020540800204008002044080020C2
:1006A000480800204C08002088670120AB67012023
:1006B000D0670120DC0700208C510120FB48FC4959
:1006C000096840F821B0FA480068401CF849086001
:1006D00042E0F74800681E283ED14FF000080EE0C7
:1006E000F24951F8280001F017FB22462B46CDE9CC
:1006F000060101F06FF904460D4608F10108B8F152
:100700001E0FEDDB0022EB4B2046294601F07BFA61
:1007100004460D464FF000081BE0B8F11D0F07DA44
:10072000E24908F1010051F8200041F828000EE0EC
:10073000B8F11D0F0BD1BBF1000F05DACBF10000B2
:10074000DA4941F8280002E0D84840F828B008F11A
:100750000108B8F11E0FE0DBD54800681E282FD134
:100760004FF0000810E008F10E01D04A52F82100C5
:1007700001F0D2FA32463B46CDE9060101F02AF9F2
:1007800006460F4608F10108B8F1030FEBDB002223
:10079000C94B3046394601F036FA06460F4600226C
:1007A000C64B3046394601F015F922462B46CDE9B5
:1007B000040101F0B0F9CDE9060101F04FFB0B9007
:1007C000BB4800681E2835D1BD480088FF2812DCD0
:1007D000BC49BB4A12880B9841F82200B8480088EF
:1007E000401CB749088008460088FF2822D12120F4
:1007F000B54908701EE0B2480088B0F5807F19D175
:100800004FF0000813E0B8F1FF0F07DAAD4908F127
:10081000010051F8200041F8280006E0B8F1FF0F70
:1008200003D1A8490B9841F8280008F10108B8F154
:10083000FF0FE8DDA2480088B0F5807F7CD1A24898
:100840000078401CA049087008460078212873DB16
:100850000020087081460BE09A4850F829009B4917
:1008600041F83900002001EBC901486009F1010994
:10087000B9F1FF0FF0DD4FF0010857E0A8F10102D8
:10088000904B53F822101A4652F8280001F00CFB46
:1008900025D28C4B08F1010253F822101A4652F867
:1008A000280001F001FB0AD3864B08F1010253F83E
:1008B00022101A4652F8280001F0ECFA0FD18149B3
:1008C00051F8280001F035FA8149824A126841F84E
:1008D000220080480068401C7E49086024E0A8F19E
:1008E0000102784B53F822101A4652F8280001F002
:1008F000D1FA19D2734B08F1010253F822101A46AB
:1009000052F8280001F0C6FA0ED86E4951F82800B6
:1009100001F00FFA7049714A126841F822006F48DD
:100920000068401C6D49086008F10108B8F1FF0F2C
:10093000A4DD4FF000080AE048E1654850F82800BF
:100940006749096808446649086008F10108614878
:1009500000688045F1DB624800685E49096890FBE9
:10096000F1F05F4908604FF0000809E05A4850F87C
:1009700028005C49096808445A49086008F10108E0
:10098000564800688045F1DB5648006853490968BD
:1009900090FBF1F053490860514800680968401A1B
:1009A0004F4908604948FFF793FD4FF0000925E0E3
:1009B000464A02EBC9025168444A02EBC902506838
:1009C00000F098FF414A029052F8391052F839006D
:1009D00000F090FF0190029900F034FF039001F0C5
:1009E000F9F9CDE9040126F00BF8CDE9060101F093
:1009F00035FA364941F8390009F10109B9F1FF0F1B
:100A0000D6DD4FF0000913E0484601F06BF906907F
:100A10002E4850F83910069800F06CFF4FF08341D3
:100A2000079000F099FF294941F8390009F10109BF
:100A3000B9F1100FE8DB002008904FF001082FE01B
:100A4000A8F10102214B53F832101A4652F838002F
:100A500001F02AFA22D21D4B08F1010253F832109C
:100A60001A4652F8380001F01FFA0AD3174B08F162
:100A7000010253F832101A4652F8380001F00AFA0F
:100A80000CD1124850F83800174941F82A0017498C
:100A900001F80A800AF1010000F0FF0A08F10108DC
:100AA000B8F1210FCCDB4FF0000845E08C5101205C
:100AB000DC07002000003E400000084000006040CD
:100AC000E207002010520120E007002060570120BB
:100AD0002056012040080020C05601204408002074
:100AE000480800204C080020D067012088670120BA
:100AF0004FF0000915E0F84850F82910089801F067
:100B0000C9F90CD2F44850F829000890F34810F8BD
:100B10000900F34901F8080009F0FF00099009F104
:100B20000109D145E7DB0021EB4A099842F8201082
:100B30000020089008F10108D045D9DB4FF00008EB
:100B40001DE0E74810F80800062804DBE44810F828
:100B50000800192811DDC14607E0E14909F101004B
:100B6000085C01F8090009F10109D145F5DBA8F19C
:100B70000108AAF1010000F0FF0A08F10108D045C0
:100B8000DFDBD7490978D74A52F8310001F0D1F8B4
:100B9000D5490860D2480078D4490860D0484078E8
:100BA0004860CF4880788860CD488078C860CC495C
:100BB0000978CC4A52F83100CD4901F075F902D2DA
:100BC000CC480A9002E04FF080400A900A9801F069
:100BD000B0F80DB0BDE8F08F10B50246002100233B
:100BE000C5480068401CC44C2060204600680128AD
:100BF00008D100BF03E0C14840F82120491C072963
:100C0000F9DB26E0BC48006808280DDA002106E080
:100C1000BA4C481C54F8200044F82100491C06290D
:100C2000F6DBB648826114E0B3480068082810DBA0
:100C30000920B14C2060002106E0B04C481C54F85B
:100C4000200044F82100491C0629F6DBAB4840F897
:100C50002120002104E0A94850F821000344491C48
:100C60000729F8DB072093FBF0F010BD10B5024612
:100C700000210023A2480068401CA14C20602046AF
:100C80000068012808D100BF03E09E4840F82120F9
:100C9000491C0729F9DBFFE09948006808280DDAAC
:100CA000002106E0974C481C54F8200044F821002D
:100CB000491C0629F6DB93488261EDE09048006804
:100CC0000828E8DB09208E4C2060942A6FDA8D48D2
:100CD00080690830904204DB8A4880691438904269
:100CE0004BDD89480068401C874C20602046006826
:100CF000022804D17C480068844CA04208DC824869
:100D000000680228C7D178480068804CA042C2DA47
:100D100000207D4C2060002106E07A4C481C54F8ED
:100D2000200044F82100491C0629F6DB6E480068C3
:100D3000B0F57A7F10DD734880690830904205DA9B
:100D4000704880690E306F4CA061A5E06D488069E5
:100D500014386C4CA0619FE06A488069083090426A
:100D600005DA684880690E30664CA06194E06548F9
:100D700080691438634CA0618EE0624880699042BB
:100D800016D163480078012885DD57480068614C1A
:100D9000A0420BDD60480068B0F57A6F7CDD872AE1
:100DA0007ADA58488069001D564CA06174E011E061
:100DB0000020554C2060002106E0524C481C54F89D
:100DC000200044F82100491C0629F6DB4D4840F874
:100DD000212061E04B4880690830904204DB49489B
:100DE00080690838904246DD47480068022804D1EF
:100DF0003D480068454CA04208DC43480068022892
:100E00004AD139480068414CA04245DA00203E4CA6
:100E10002060002106E03B4C481C54F8200044F8B8
:100E20002100491C0629F6DB2F480068B0F57A7FBF
:100E300010DD344880690830904205DA3148806915
:100E4000C01D304CA06127E02E488069C01F2D4C8A
:100E5000A06121E02B4880690830904205DA2948DA
:100E60008069C01D274CA06116E026488069C01F1C
:100E7000244CA06110E00020234C2060002106E0FB
:100E8000204C481C54F8200044F82100491C062935
:100E9000F6DB1C4840F82120002104E0194850F8F6
:100EA00021000344491C0729F8DB072093FBF0F0DD
:100EB00010BD2DE9FF4F8FB0834600200E900D909E
:100EC000044605460646074682460C900B900A905B
:100ED000099080462EE00000D0670120886701203D
:100EE000AB67012060570120F80700201056012051
:100EF00000401C4600004040500800205C68012073
:100F0000E4070020605F0120E8070020F0490200AC
:100F1000C5070020A0860100480800200020FE49E7
:100F200001F80800FD4901F80800FD4941F82800D2
:100F300008F10108B8F1210FF0DB1298404212903D
:100F400012980E900E98FFF766FB0A90F54800681D
:100F5000099040F6B83083457EDDF34800681E28CE
:100F60000ADAF248F049096840F821B0EE48006812
:100F7000401CED4908603FE0EB4800681E283BD16B
:100F80004FF000080EE0E94951F8280000F0C4FED7
:100F900022462B46CDE9060100F01CFD04460D4615
:100FA00008F10108B8F11E0FEDDB0022E04B2046EE
:100FB000294600F028FE04460D462046294600F04A
:100FC000D1FEDC4908604FF0000812E0B8F11D0FB7
:100FD00007DAD64908F1010051F8200041F828004D
:100FE00005E0B8F11D0F02D1D04840F828B008F153
:100FF0000108B8F11E0FE9DBCB4800681E2831D18B
:101000004FF0000810E008F10E01C84A52F8210024
:1010100000F082FE32463B46CDE9060100F0DAFCE4
:1010200006460F4608F10108B8F1030FEBDB00227A
:10103000C14B3046394600F0E6FD06460F46002219
:10104000BE4B3046394600F0C5FC22462B46CDE962
:10105000040100F060FD00E0C2E0CDE9060100F00F
:10106000FDFE0D90B04800681E2835D1B4480088B8
:10107000FF2812DCB349B24A12880D9841F82200C9
:10108000AF480088401CAE49088008460088FF2809
:1010900022D12120AC4908701EE0A9480088B0F593
:1010A000807F19D14FF0000813E0B8F1FF0F07DA85
:1010B000A44908F1010051F8200041F8280006E099
:1010C000B8F1FF0F03D19F490D9841F8280008F1AE
:1010D0000108B8F1FF0FE8DD99480088B0F5807F7E
:1010E0007ED199480078401C97490870974800784D
:1010F00000EB40100978884272DC002092490870A9
:1011000081460BE08F4850F82900914941F8390099
:10111000002001EBC901486009F10109B9F1FF0F95
:10112000F0DD8B48FFF731F94FF0000925E0884AE0
:1011300002EBC9025168864A02EBC902506800F00E
:10114000D9FB834A029052F8391052F8390000F066
:10115000D1FB0190029900F075FB039000F03AFE7C
:10116000CDE9040125F04CFCCDE9060100F076FE46
:10117000774941F8390009F10109B9F1FF0FD6DDCE
:101180004FF0000913E0484600F0ACFD06907048AF
:1011900050F83910069800F0ADFB4FF083410790EE
:1011A00000F0DAFB6A4941F8390009F10109B9F1A7
:1011B000100FE8DB00200B904FF0010831E0A8F1A0
:1011C0000102634B53F832101A4652F8380000F00F
:1011D0006BFE24D25E4B08F1010253F8321000E09E
:1011E0000EE21A4652F8380000F05EFE0AD3584B61
:1011F00008F1010253F832101A4652F8380000F094
:1012000049FE0CD1524850F83800454941F82A00AF
:10121000414901F80A800AF1010000F0FF0A08F1D3
:101220000108B8F11A0FCADB4FF0000823E04FF0B5
:10123000000915E03A4850F829100B9800F02AFEF2
:101240000CD2374850F829000B90334810F80900A9
:10125000324901F8080009F0FF000C9009F101097A
:10126000D145E7DB00212E4A0C9842F820100020DF
:101270000B9008F10108D045D9DB3648008808906A
:1012800035480078002807DC3248008820B1334810
:101290000068B0F5FA6F23DA4FF000081DE01F4830
:1012A00010F80800062804DB1C4810F808001A286B
:1012B00011DDC14607E0194909F10100085C01F898
:1012C000090009F10109D145F5DBA8F10108AAF1EE
:1012D000010000F0FF0A08F10108D045DFDB80E0E3
:1012E0004FF000087BE0089800F005FD1C4A1D4BFC
:1012F000CDE9000100F087FC00220F4BCDE902018F
:1013000000F009FCCDE90601044911F8080000F0DD
:1013100003FDCDE9040127E084680120A7680120CE
:10132000CC680120F8070020CC07002008510120DC
:1013300000003E40F407002000000840000060402C
:10134000CA070020084D0120D4070020C407002050
:10135000885F0120C6070020C5070020480800203C
:101360008FC2F5285C8F1E40DDE9062300F046FDA4
:1013700021D3089800F0BFFCC54AC64BCDE9000157
:1013800000F041FC0022C44BCDE9020100F022FB39
:10139000CDE90601C14911F8080000F0BDFCCDE916
:1013A0000401DDE9062300F041FD04D3BB4810F839
:1013B0000800192811DDC14607E0B84909F101000C
:1013C000085C01F8090009F10109D145F5DBA8F134
:1013D0000108AAF1010000F0FF0A08F10108D04558
:1013E00081DB42F210710998884267DDAC480068E1
:1013F000B0F5FA6F62DD4FF000095BE0A74A12F822
:101400000930A84A1268921C934206DAA34A13785C
:10141000A44A1268921E934236DCA04A12F80930A0
:10142000A04A12684FF0020C0CEB4202934207DA1A
:101430009A4A13789B4A1268CCEB4202934223DC0F
:10144000984A116801EBD1725210921C934B13F819
:1014500009309A4209DD934A106800EBD0725210AD
:10146000921E8E4B1B789A420EDB8C4A12F8093082
:101470008C4A5268521C93421ADA884A1378894A75
:101480005268521E934213DDC84607E0834908F1B3
:101490000100085C01F8080008F10108AAEB090046
:1014A0004045F3DCA9F10109AAF1010000F0FF0AAF
:1014B00009F10109AAF1010048459FDCBAF1000FCA
:1014C0007EDD76494978784A52F8310000F082FC96
:1014D0000022764BCDE9020100F023FBCDE90601A5
:1014E0006E490978704A52F8310000F073FCCDE97A
:1014F0000401DDE9062300F099FC61D26748007819
:1015000005287EDD654800781A287ADA6848008860
:1015100088BB6249087800F0FFFB5D4A5D4BCDE96E
:10152000020100F0FEFA0022624BCDE9040100F056
:1015300051FACDE9060100F034FC5D490880084607
:101540000088A0280BDD55490978574A52F8310028
:10155000594900F09FFC02D20020554908804F49AC
:101560000978514A52F83100544900F093FC02D2F4
:1015700000204F4908804E480088282854DD02206A
:101580004F4908704549087800F0C6FB404A414B76
:10159000CDE9020100F0C5FA0022464BCDE9040175
:1015A00000F018FACDE9060100F0FBFB4549088080
:1015B0003F480088C01F0988884214DD414800E088
:1015C0001FE0008880280EDA3F49099888420ADD2A
:1015D0003348006841F28831884204DD344800888D
:1015E000401D3849088037480088FFF73FFB3549E0
:1015F0000880084600882E4908800020334908707A
:1016000012E032480078401C304908702D480088AC
:10161000282809DD2B480088FFF728FB2949088086
:1016200008460088224908802648008813B0BDE893
:10163000F08F01460020234A10801D4A1080244A62
:101640001070244A1070244A108001201C4A107027
:101650000020224A1070224A1060224A10601B4A61
:101660001070214A1070214A1060214A1060214AEE
:101670001080214A1060214A1060214A1060214ADE
:101680001060214A1060214A10600120704700005C
:101690008FC2F5285C8F1E4000001840A76801200B
:1016A0004808002010560120885F01200000F83F04
:1016B000C6070020000008400000FA440000C843AC
:1016C000C4070020C8070020A0860100C50700202D
:1016D000FC070020E0070020CA070020D4070020F4
:1016E000CC070020D0070020D5070020D807002015
:1016F000DC070020E207002050080020F807002047
:10170000E4070020E8070020EC070020F407002091
:1017100070B500242546002801DA01244042002942
:1017200001DA0125494200F0C9FBAC4200D0404239
:10173000002C00D0494270BD2DE9F05F0546002025
:1017400092469B4688460646814640241BE0284632
:1017500041464746224600F0D6FB53465A46C01A39
:10176000914110D311461846224600F0BDFB2D1AB8
:1017700067EB01084F4622460120002100F0B4FB30
:1017800017EB00094E41201EA4F10104DFDC48469E
:1017900031462A464346BDE8F09F00000649074A05
:1017A0000868504343F2390210440860400870470B
:1017B00001490860704700006C0800206D4EC6416A
:1017C00040EA01039B0703D009E008C9121F08C0C3
:1017D000042AFAD203E011F8013B00F8013B521E43
:1017E000F9D27047D2B201E000F8012B491EFBD2BA
:1017F00070470022F6E710B513460A46044619461C
:10180000FFF7F0FF204610BD421C10F8011B002915
:10181000FBD1801A704710B5002200E0521C835C97
:101820008C5CA34201D1002BF8D1D8B2E1B2401AAE
:1018300010BD034611F8012B00F8012B002AF9D145
:1018400018467047F0B480EA0102D40F4200B2EBB0
:10185000410F02D20246084611464A0042D0C30D4B
:10186000DDB2C1F3C752AD1A202D35DAC1F316012E
:1018700041F4000204B15242C5F1200602FA06F119
:101880002A411044B3EBD05F23D0C4B1012DA0EBAB
:10189000C35009DCF0BC4FF0004202EAC352DBB295
:1018A00000F5000000F05ABB400000F1807000EB32
:1018B000C350A0F1807040EAD170490009E04908A6
:1018C00041EAC071A0EBC35000F50000400800EBF6
:1018D000C350F0BC00F039BB6142012202EB410170
:1018E000001BF6E7F0BC704781F00041AAE780F0EA
:1018F0000040A7E780EA010210B502F00043400073
:1019000022D04A001FD0010E01EB1261C0F3560035
:10191000C2F3560240F4000042F40002A0FB022091
:1019200000047F39140400D0401C50EA124001D456
:101930004000491EC2B20C0604EBD010401C400807
:10194000802A02D003E0002010BD20F00100002911
:1019500000DA0020184310BD30B480EA010202F022
:10196000004530F0004221F0004013D090B1C30D8B
:10197000D40DC2F31601C0F31600E41A41F40001BD
:1019800040F400027D34914201D3641C00E0490020
:10199000002C02DA30BC002070474FF40000002316
:1019A000914201D3891A034340084FEA4101F7D11C
:1019B00051B1914202D14FF0004105E002D24FF007
:1019C000010101E06FF0010103EBC450284430BC79
:1019D00000F0BBBA2DE9FE4F804681EA0300C00F3C
:1019E0000C46009021F0004123F00045B8EB0200C6
:1019F000A94105D24046214690461C460B46024668
:101A000023F00040104347D0270DC7F30A00C3F36B
:101A10000A510290401A019040286BDAC3F3130078
:101A200040F4801B0098924620B10023D2EB030AB9
:101A300063EB0B0B01985946C0F14002504600F091
:101A400053FA06460D4650465946019A00F06BFA85
:101A500010EB08006141002487EA115284EAE77321
:101A60001A4340D0009A62B3019A012A4FEA075202
:101A700015DC001B61EB02014FF0004202EA075245
:101A8000CDE90042001C41F5801132462B4600F0A2
:101A9000A2FA03B0BDE8F08F40462146F9E7001BEB
:101AA00061EB0201001C41F5801300185B41201816
:101AB000A2F5001747EB030140EAD570B6196D4156
:101AC00011E06D084FEA360645EAC0754FEA075245
:101AD000001B61EB0201001C41F5801149084FEA2F
:101AE00030000019514132462B4603B0BDE8F04F9B
:101AF00000F062BA0098012240000023D0EB0202FD
:101B000063EBE073009821464FEAE074B8EB000005
:101B100061EB0401E9E783F000435BE781F00041FA
:101B200058E72DE9FE4F81EA030404F0004421F058
:101B3000004100944FF0000B23F0004350EA0104F1
:101B40005ED052EA03045BD0C3F30A54C1F30A55D2
:101B50002C44A4F2F3340194A0FB0254C1F313010A
:101B600041F48011C3F3130343F4801301FB0244D7
:101B700000FB034E840A970A44EA815447EA8357DC
:101B8000A4FB076802958D0A05FB07854FEA932C95
:101B900004FB0C542705029D4FEA065847EA163706
:101BA000B5EB08056EEB070C870E920E47EA81171E
:101BB00042EA8312A7FB0201B6EB0B0164EB0004BF
:101BC0002B0D43EA0C335E1844EB1C50DA465146A9
:101BD000E7FB0201C5F313044FEA0B3343EA145346
:101BE0004FEA0432019C43EA0603A4F10C04029478
:101BF000009CCDE900B400F0EEF903B0BDE8F08F31
:101C000000200146F9E72DE9F04D81EA030404F0D4
:101C1000004B21F0004514464FF0000A23F000412C
:101C200050EA050220D054EA01021DD0C5F30A573C
:101C30000246C5F31303C1F31300C1F30A5640F47F
:101C4000801543F48013A7EB0608101BD64608F254
:101C5000FD3873EB050002D308F1010801E092188A
:101C60005B41B8F1000F03DA00200146BDE8F08DBA
:101C700000204FF48011064684460EE0171B73EBDC
:101C8000050705D3121B63EB050306434CEA010C61
:101C900049084FEA300092185B4150EA0107EDD144
:101CA00052EA030012D082EA040083EA05010843E5
:101CB00005D0101BAB4106D20122002306E0002212
:101CC0004FF0004302E06FF0010253101AEB0600E0
:101CD0004CEB085110EB0A0041EB0B01BDE8F04D55
:101CE00000F06AB9C10F80EAE0700844CA07962381
:101CF000002100F033B90EB5C10F80EAE07008444E
:101D0000CA07002140F233438DE80E000A460B4615
:101D100000F061F903B000BD0EB540F2334102910D
:101D20000021CDE900110A460B4600F054F903B03A
:101D300000BD00F0004220F00040C10DC0F31600CD
:101D400040F400007F2901DA00207047962903DC67
:101D5000C1F19601C84001E096398840002AF4D0CC
:101D60004042704770B5C1F30A5201F000450024AB
:101D7000C1F3130140F2FF3341F480119A4201DABA
:101D8000002070BD40F233439A42A2F2334203DC9A
:101D9000524200F0B8F800E090402C43F1D04042AD
:101DA00070BDC1F30A5210B5C1F3130140F2FF3305
:101DB00041F480119A4201DA002010BD40F2334311
:101DC0009A42A2F2334203DC524200F09CF810BD6A
:101DD000904010BD00F0004230F000400AD0C10D2C
:101DE00001F56071C0F3160042EA0151C2084007D4
:101DF00011437047002001467047000030B5041EB3
:101E000071F1000404DB4FF00044404264EB010137
:101E1000141E73F1000405DB1C464FF000435242D0
:101E200063EB04038B4208BF824230BD30B5041E11
:101E300071F1000404DB4FF00044404264EB010107
:101E4000141E73F1000405DB1C464FF000435242A0
:101E500063EB0403994208BF904230BD01F0004398
:101E600030B421F0004150EA010206D00A0DA2F57B
:101E70006072C1F31301002A02DC30BC00207047FD
:101E8000440F44EAC104C100E01830BC00EBC2506A
:101E900000F05BB8002801DBC0F10040002901DB45
:101EA000C1F1004181427047002801DBC0F10040D0
:101EB000002901DBC1F100418842704730B50B4673
:101EC000014600202022012409E021FA02F59D426A
:101ED00005D303FA02F5491B04FA02F52844151E3E
:101EE000A2F10102F1DC30BD202A04DB203A00FA25
:101EF00002F1002070479140C2F1200320FA03F361
:101F0000194390407047202A04DB203A21FA02F05E
:101F10000021704721FA02F3D040C2F12002914023
:101F2000084319467047202A06DBCB17203A41FAAE
:101F300002F043EAE07306E041FA02F3D040C2F156
:101F4000200291400843194670470029A8BF7047F6
:101F5000401C490008BF20F00100704710B4B0FADF
:101F600080FC00FA0CF050EA010404BF10BC70477A
:101F700049B1CCF1200421FA04F411FA0CF118BF94
:101F8000012121430843A3EB0C01CB1D4FEA006163
:101F90004FEA102042BF002010BC704700EBC35036
:101FA00010440029A4BF10BC7047401C490008BF62
:101FB00020F0010010BC704710B5141E73F100042E
:101FC00008DA401C41F1000192185B411A4301D12B
:101FD00020F0010010BD2DE9F04D92469B4611B155
:101FE000B1FA81F202E0B0FA80F220329046FFF7B7
:101FF0007BFF04460F4640EA0A0041EA0B015346C4
:102000005A46084313D0114653EA010019D0C8F1CB
:1020100040025046FFF777FF05460E4650465946A8
:102020004246FFF761FF084305D0012004E0204647
:102030003946BDE8F08D0020054346EAE0762C43A2
:1020400037430A986305E40AA0EB08000022FD0A62
:1020500044EA47540A3002D500200146E9E7010569
:1020600010196941DDE9084500196941BDE8F04DE5
:10207000A2E72DE9F04D00231A461B1A8A4103DB23
:1020800000200146BDE8F08DC1F30A52C1F31301EF
:1020900041F480154FF0000BD10702D100186D41BB
:1020A000521E0027044640F2FF11384601EB620A37
:1020B0003E468046024600204FF48011FFF723FF82
:1020C000C2197141BB1846EB0100B4EB030C75EB70
:1020D000000C04D3E41A65EB000517460E462419DC
:1020E00008F101006D4180463428E3DDF91946EB23
:1020F0000600091BA84103D24FF0FF32134601E04E
:10210000002213461BEB070046EB0A51BDE8F04DD9
:10211000FFF752BFC1F30A52C1F3130140F2FF337C
:1021200041F480119A4202DA00200146704740F2E1
:1021300033439A42A2F2334202DC5242FFF7E3BE3B
:10214000FFF7D2BE00207047064C074D06E0E0685E
:1021500040F0010394E8070098471034AC42F6D3EE
:10216000FEF71EF87CDC05089CDC050870B58C18B1
:1021700010F8015B15F0070301D110F8013B2A119B
:1021800006D110F8012B03E010F8016B01F8016B88
:102190005B1EF9D12B0705D40023521E0DD401F884
:1021A000013BFAE710F8013BCB1A921C03E013F84D
:1021B000015B01F8015B521EF9D5A142D8D3002082
:1021C00070BD00007FB5002415480094019402946E
:1021D0001249039401604FF48031C0E90114046195
:1021E000047680F820400F49C0E90A140125C56132
:1021F000C46080F83040456100F09FFF08B100F0F6
:102200007FFE0095CDE901546946054800F0E0FEE7
:10221000002801D000F074FE7FBD000000200140C6
:10222000E40800200100000F464910B54A6822F476
:1022300040324A604A6843681A434A6001684A6803
:1022400022F480724A6001684A68036942EA032204
:102250004A6001684A6822F040724A6001684A6830
:1022600083681A434A6001688A6822F400628A60BF
:1022700001688A68C3681A438A60816A6FF0706275
:10228000D14201688A6822F070628A6001688A68B7
:102290000CD0836A1A438A6001688A6822F040522F
:1022A0008A6001688A68C36A1A4301E022F04052DA
:1022B0008A6001688A6822F002028A6001688A687E
:1022C000037E42EA43028A6090F8201000290168E8
:1022D0004A680FD042F400624A6001684A6822F4FA
:1022E00060424A6001684A68174C436A04EB433312
:1022F0001A4301E022F400624A600168CA6A22F4CB
:102300007002CA620168CA6A838B104C04EB0353E3
:102310001A43CA6201688A6822F400728A600168FE
:102320008A6890F8303042EA43228A6001688A68FD
:1023300022F480628A6001688A68406942EA8020EB
:10234000886010BD0023014000E0FFFF0000F0FFA7
:10235000094808B5016841F002010160006800F019
:1023600002000090054803F0CDF828200BF018F883
:1023700000F0AAF8002008BD303802401405002003
:102380002DE9F05F82468B46052400254C4803F07A
:1023900057F970214A4803F00FF9494803F08EF9C4
:1023A000AC21474803F008F9454803F087F9332189
:1023B000434803F001F9424803F080F90021404806
:1023C00003F0FAF83E4803F079F93D4803F057F975
:1023D00050200AF0E5FF06E005200AF0E1FF641E48
:1023E000E4B200F071F800F06FF8C00702D0002CE2
:1023F000F2D163E0002C61D0314803F021F9712162
:102400002F4803F0D9F82E4803F058F92C4803F070
:1024100093F82B4803F0B7F8294803F08DF881466C
:10242000274803F0B0F8264803F086F88046244891
:1024300003F0A9F8224803F07FF80446204803F08F
:10244000A2F81F4803F078F807461D4803F09BF8F0
:102450001B4803F071F80646194803F0D9F81848EC
:1024600003F00DF945EA090548EA052144EA01208F
:1024700000094FF47A714843000D00EE100AF2EEA5
:10248000040A47EA0421B8EE400A46EA0121C1F3F2
:1024900013004FF4FA6180EE201A4843094901EB1A
:1024A000105000EE100A0020B8EE400A8AED001A23
:1024B00080EE201A8BED001ABDE8F09F0120FBE7AB
:1024C000140500200CFEFFFF10B50B4803F0B8F810
:1024D0007121094803F070F8074803F0EFF8064847
:1024E00003F02AF80446044803F092F8024803F087
:1024F000C6F8204610BD00001405002010B504F0F9
:1025000063FC9FED091AF0EE400A80EE810ADFEDD0
:10251000070A06F08BFAF7EE000A30EEC00ADFED8C
:10252000040A20EE200A10BD80E6C54701DE423EC7
:10253000002A2D472DE9F0411D462DED068B14464E
:102540000E4607469DED0D8ADDED0C8A11FB06F067
:1025500012FB040000EE100AB8EEC00A06F060FE9E
:10256000F0EE400A00EE107AB8EEC00A05F0DEFF89
:10257000F0EE409A17FB07F014FB040000EE100A7F
:10258000B8EEC00A06F04CFEF0EE400A00EE106A0B
:10259000B8EEC00A05F0CAFFB0EE409A06F09EF908
:1025A000F8EEE80A60EE208AB0EE490A06F070FD07
:1025B000F0EE400A00EE105AB8EEC00A20EE80AAF3
:1025C000B0EE690A06F064FD4AEE008AB0EE690AD0
:1025D00006F084F9F8EEC80A20EE20AAB0EE490A07
:1025E00006F056FD4AEE408AB0EE690A06F076F92A
:1025F000F0EE400A00EE105AB8EEC00A20EE809AC3
:10260000B0EE690A06F044FDF8EEC80A00EE809AC2
:10261000B0EE680AF0EE490A05F088FF10EE100AE5
:10262000FFF7D8FB9FED091B53EC112BFFF779FA4D
:102630009FED081B53EC112BFFF7E5FAFFF70EFC9B
:10264000BDEC068B00EE100ABDE8F0810000000032
:10265000008066404AD8124DFB21094070B5002524
:102660002C46154800F01AFE0521134800F0C0FD65
:10267000114800F05FFD05440F4800F075FE012091
:102680000AF08EFE641CE4B2082CEAD3E80840008D
:10269000FFF742FB9FED091B53EC112BFFF741FAAB
:1026A0009FED081B53EC112BFFF73BFAFFF7D6FB0E
:1026B00000EE100A70BD0000E40800206666666641
:1026C00066660A40000000000000303F0EB5194E5B
:1026D000194C00254FF4FA7700231A4602A93068F6
:1026E00022F0A6FB08BB04F099FA2070401E632874
:1026F00000D925701148124A90F8301000EBC10142
:1027000051E902015040694008430ED10D4821783B
:10271000006814F024F822780BA1684605F0C2FE88
:102720000B48694600681AF0CDFC384622F044FB9D
:10273000D2E700005400002081000020500B002050
:102740008800002098000020253264252500000024
:10275000A000002010B5874C207832385D2848D280
:102760006079002845D0A079002842D1207A00283D
:102770003FD003F005FD217832390B0005F0A6FEAD
:102780005D30326D6F71717373757779797B7D7D93
:102790007F81838587898B8B8D8F9191939395977B
:1027A00095959395979999999B9B999999999B9BA5
:1027B0009D9FA1A1A3A3A5A5A5A5A7A7A7A9A9ABCF
:1027C000ADB3AFB1B1AFAFAFB3B5B5B7B7B7B9BBD5
:1027D000BBBBBBBDBDBDBFBFBFC1C3C5C5C734004B
:1027E0005C3000E05D30607003F098FD2178323994
:1027F00000E096E00B0005F069FE5D8C8E8E9597EB
:102800009797979799999999999B9B9B9B9D9D9D2C
:102810009D9D9F9F9F9F9FA1A1A3A3A5A5A5A7A79E
:10282000A9A9ABABADADAFB1B3B5B5B7B7B7B9B992
:10283000B7B9B9B9B9B9B9B9B9B9B9B9B9B9B9B90A
:10284000BBBBBBBBBBBBBBBBBBBBBBBBBBBBBBBBD8
:10285000BBBBBBBBBBBBBBBB90005F30C3E7603047
:10286000C1E76130BFE76330BDE76430BBE7653087
:10287000B9E76630B7E76930B5E76C30B3E76D307C
:10288000B1E76E30AFE76F30ADE77030ABE7743073
:10289000A9E77630A7E77730A5E77830A3E77A3065
:1028A000A1E77B309FE77D309DE77E309BE77F305F
:1028B00099E7803097E7813095E7823093E783305E
:1028C00091E786308FE787308DE788308BE7893056
:1028D00089E78E3087E7943085E78C3083E7913045
:1028E00081E795307FE796307DE798307BE7993038
:1028F00079E79B3077E79C3075E79E3073E7A0302F
:1029000071E7A5306FE7A6306DE7A8306BE7AA3016
:1029100069E7413000E04230A07060782071A07813
:10292000E07010BD4330F7E74430F5E74530F3E79A
:102930004630F1E74730EFE74B30EDE74C30EBE75F
:102940004D30E9E74E30E7E74F30E5E75030E3E759
:102950005130E1E75230DFE75330DDE75430DBE759
:102960005630D9E75730D7E75930D5E75A30D3E753
:102970005C30D1E75C080020FEE7000030B587B08E
:1029800014216846FEF735FF1348016841F0020143
:102990000160016801F002010591016841F0010147
:1029A000016000684FF4004400F001000590012030
:1029B000CDE9004002900320084D03906946284667
:1029C00000F0DEFE01222146284600F0D6FF044832
:1029D00002F098FD07B030BD3038024000000240E0
:1029E00070050020022000F023B800001CB501A8EB
:1029F00000900423032215210C4802F089FE9DF863
:102A000004109DF8050001F00F0140EA012107487C
:102A1000083801609DF807109DF806200F3102F07C
:102A20000F0241EA022141601CBD00007005002038
:102A300002461521014802F0AFBE000070050020DB
:102A40000B4602461521014802F0D4BE7005002055
:102A500070B50A4D4FF4004400222146284600F08C
:102A60008CFF0A2000F06CFE01222146284600F06F
:102A700084FFBDE87040642000F062BE00000240A8
:102A80000321E520FFF7DCBFFFF7E2BF10B50C46DE
:102A900003464979601E085C2B2806D02D280ED0ED
:102AA0002A2816D02F281ED026E0187D03EB8000A0
:102AB00010ED020A50ED010A70EE200A1CE0187DAC
:102AC00003EB800010ED020A50ED010A70EE600A7F
:102AD00012E0187D03EB800010ED020A50ED010AB0
:102AE00060EE200A08E0187D03EB800010ED020A7A
:102AF00010ED011AC0EE010A184603F0B1FF1846A6
:102B000003F0AEFFB0EE600A184603F0B9FF2046AE
:102B1000BDE8104004F06FBE08B5264F264E274D85
:102B200000244FF001084FF4FA793878E8B32448CC
:102B300004803C7000F0C2F8A8B196F8300006EBB3
:102B4000C00151E902026840624010430BD025F0F9
:102B5000F9FD0023CDF800801A46062128681FF0F1
:102B600099FA2A461DE000F0A9F8F0B996F830006D
:102B700006EBC00151E9020268406240104314D1E3
:102B800027F00CF9DFF83CA00023CDF800801A46AE
:102B90000621DAF800001FF07DFA07482BF0E5FE69
:102BA0005246002304482BF0F0FE484622F004F978
:102BB000BBE7000007000020500B0020800400202D
:102BC000580000208800002088B02E4E2E4FDFF8DD
:102BD000BC80DFF8BC902F4C00254FF4FA6A00BF90
:102BE00096F8300006EBC00151E9020178406940D7
:102BF000084342D1002202A9274801F041FB0022EC
:102C000007A9254801F01AFB9DF8092098F8001043
:102C10008A420AD088F8002020A1684605F042FCCC
:102C20002048694600681AF04DFA9DF8082099F886
:102C300000108A420AD089F8002018A1684605F0E1
:102C400031FC1948694600681AF03CFA03F0E6FFC7
:102C500020700146401E63280ED81448006813F007
:102C60007EFD227812A1684605F01CFC12486946D8
:102C700000681AF027FA00E02570504622F09CF810
:102C8000AEE70000500B0020800400207D000020F3
:102C90007C00002081000020E409002025303264FF
:102CA0000000000094040020900400208404002010
:102CB00025326425250000008C04002004210148F1
:102CC00000F04EBE00000240014800F0C7BB00000B
:102CD00084090020014800F0C1BB0000900A0020D8
:102CE000014800F0BBBB0000F00A00200168182377
:102CF000CAB2103AB2FBF3F2054B6FF30901032A93
:102D00009B5CC36500D9091D8165084670470000BA
:102D10000C8C040810B5014600208B698A6A4FF0BC
:102D2000C07453B1B3F5005F15D072B1012A0CD055
:102D3000022A0AD0032A09D104E01AB1012A06D0D6
:102D4000022A03D1C96AC90100D5012010BDC96A90
:102D5000A142FAD010BD002AF7D0012AF2D0022AEF
:102D6000F3D0032AF3D010BD114808B5016841F42F
:102D7000800101600068002200F48000009011468C
:102D80003A2000F097FE3A2000F086FE002211461D
:102D9000442000F08FFE442000F07EFE0022114609
:102DA000462000F087FEBDE80840462000F074BED3
:102DB0003038024030B50468256825F48025256048
:102DC000046863608368402B036803D099600068DF
:102DD000C26030BD9A600068C16030BD704700209D
:102DE000AFF3008002462421014802F0D5BC000068
:102DF000200500200B4602462421014802F0FABCBF
:102E00002005002010B5052404E0642000F098FCA3
:102E1000641EE4B2FFF7E3FF362802D0002CF4D1A1
:102E200006E02CB100210120FFF7E4FF002010BDD7
:102E3000012010BD10B5052404E0642000F080FCE2
:102E4000641EE4B2FFF7CBFF362802D0002CF4D189
:102E500006E02CB108210120FFF7CCFF002010BDB7
:102E6000012010BD38B519480524016841F0020160
:102E70000160006800F002000090154802F042FB7B
:102E800004E0642000F05CFC641EE4B2FFF7A7FFDE
:102E9000362802D0002CF4D116E0ACB1002101207C
:102EA000FFF7A8FF00210820FFF7A4FF7F210A20D9
:102EB000FFF7A0FF47210D20FFF79CFF00210E2008
:102EC000FFF798FF002038BD012038BD30380240A0
:102ED00020050020024901204870000300F044BC96
:102EE00005000020024901208870042000F03CBC4D
:102EF00005000020102000F037BC202000F034BC7A
:102F000072B6FEE701480079704700005C080020B7
:102F10000148C078704700005C08002070B586B09A
:102F200014216846FEF765FC12480025016841F04F
:102F300004010160016801F004010591016841F09C
:102F40000101016000680C4E00F001004FF40054D4
:102F500005902A462146304600F00FFD0121CDE9BB
:102F60000041CDE902156946304600F009FC06B083
:102F700070BD0000303802400008024070B50220E9
:102F800004F086F90546012004F082F90446002089
:102F900004F07EF944EA002145EA0120010201D54E
:102FA00040F07F4070BD70B5052004F071F9054612
:102FB000042004F06DF90446032004F069F944EAA2
:102FC000002145EA0120010201D540F07F4070BD9B
:102FD00078B50024009490F83C20012A19D00122F1
:102FE00080F83C200A6807230568092A13D9EE688F
:102FF0000A3A02EB420293409E43EE600B788A68E5
:103000000A3B03EB43039A400368DD682A43DA6016
:1030100010E0022078BD2E6902EB420293409E43ED
:103020002E610B788A6803EB43039A4003681D699D
:103030002A431A614A681F23072A13D205686E6B58
:10304000521E02EB820293409E436E630A8893B243
:103050000A79521E02EB820293400268556B2B43A1
:10306000536327E005680D2A12D22E6BD21F02EBA4
:10307000820293409E432E630B790A88DB1F92B233
:1030800003EB83039A4003681D6B2A431A6311E024
:10309000EE6A0D3A02EB820293409E43EE620B7998
:1030A0000A880D3B92B203EB83039A400368DD6A02
:1030B0002A43DA621B4B0568194A9D420AD10D6802
:1030C000122D07D1556825F400055560556845F463
:1030D0008005556005689D421DD1134D0B68AB42BC
:1030E00001D0112B17D1536823F480035360536828
:1030F00043F4000353600968A9420CD10B490C4A00
:103100000968B1FBF2F101EB8101490000E0491EC1
:1031100000910029FBD180F83C40002078BD0000E0
:103120000023014000200140120000108C05002007
:1031300040420F000068C06C704770B504004FF04B
:10314000000503D0206C002610B107E0012070BDFF
:10315000204600F01DF8666484F83C60206CC006D0
:1031600010D4206C20F4885040F0020020642046E7
:10317000FFF75AF86664206C20F0020040F001006E
:10318000206400E0012584F83C60284670BD000002
:1031900010B586B0044614216846FEF72AFB114993
:1031A000206888421CD110480021026842F48072D5
:1031B0000260006800F4807005900B4814380268C3
:1031C00042F001020260006800F001000590022058
:1031D00000900320CDE901016946044800F0D0FACF
:1031E00006B010BD002001404438024000000240FB
:1031F0002DE9F041044600680D4681684FF0000754
:1032000049050BD58068C00508D5206C40F020002A
:10321000206484F83C700120BDE8F08100F0B2FB2E
:10322000064613E0681C11D025B100F0ABFB801BF3
:10323000A8420BD920680068800707D4206C40F0B2
:103240000400206484F83C700320E5E720680068EF
:103250008007E7D521686FF012000860206C40F409
:10326000007020642068816811F0405F13D1217ED6
:1032700089B9C16A11F4700F02D0806840050AD480
:10328000206C20F480702064206CC00403D4206C77
:1032900040F0010020640020BEE7000018B50021C6
:1032A000009190F83C20012A07D0012280F83C20B0
:1032B00002689368DB0702D011E0022018BD936812
:1032C00043F001039360244A244B1268B2FBF3F2EB
:1032D00002EB420200E0521E0092002AFBD102687B
:1032E0009368DB072ED0036C40F20164A34343F4E0
:1032F0008073036453685B0505D5036C23F40053A6
:1033000043F480530364036CDB0404D5436C23F063
:103310000603436400E0416480F83C1010496FF0FC
:103320002203136049680068C90602D00D4988422B
:1033300010D1816811F0405F0CD1816841F080416B
:10334000816007E0016C41F010010164416C41F0C3
:1033500001014164002018BD8C05002040420F008F
:10336000002301400020014090F83C1001290CD0BE
:10337000012180F83C1001688A6822F001028A600D
:1033800001688968C90702D007E002207047016C14
:1033900021F4885141F001010164002180F83C10C2
:1033A000084670472DE9F0410446876D00F0EAFABF
:1033B000064694F835000025022806D08020606576
:1033C00084F834500120BDE8F0812068016821F0C4
:1033D000160101602068416921F080014161206C83
:1033E00008B9A06C20B12068016821F008010160D3
:1033F0002068016821F0010101600CE000F0C2FAD0
:10340000801B052807D920206065032084F835003B
:1034100084F83450D7E720680068C007EED194F8EC
:103420005C103F208840B860012084F8350084F8A3
:1034300034500020C7E790F83510022903D08021CE
:10344000416501207047052180F83510006801684A
:1034500021F0010101600020704700002DE9F843D0
:1034600004464FF00009CDF8009063484FF4165120
:10347000A56D0068B0FBF1F72E6894F85C10082089
:1034800000FA01F131420FD021680A6852070BD5CA
:103490000A6822F004020A6094F85C108840A86070
:1034A000606D40F00100606594F85C104FF0010819
:1034B00008FA01F0304208D021684969090604D5AC
:1034C000A860606D40F00200606594F85C10042014
:1034D0008840304208D021680968890704D5A8606F
:1034E000606D40F00400606594F85C101020884026
:1034F000304218D021680968090714D5A8602068EF
:103500000168490304D50068000308D5A16C07E0F1
:103510000168C90503D4016821F008010160216C2C
:1035200009B12046884794F85C102020884030423A
:1035300031D021680968C9062DD5A86094F83500F6
:1035400005282068016806D0490347D500680003B4
:103550001DD4616C1CE021F01601016020684169F6
:1035600021F080014161206C08B9A06C20B1206875
:10357000016821F00801016094F85C103F20884048
:10358000A86084F8358084F83490216D1FE0E16BE9
:1035900009B120468847606D00282BD0606DC007B8
:1035A00014D0052084F835002068016821F001015D
:1035B00001600098401C0090B84203D82068006861
:1035C000C007F6D184F8358084F83490E16C002986
:1035D00010D001B02046BDE8F04308470168C90596
:1035E000D5D4016821F01001016084F8358084F899
:1035F0003490CCE7BDE8F8838C0500202DE9F0413C
:10360000044600F0BFF906465CB1022084F835009C
:10361000002584F834502068016821F00101016020
:103620000DE00120BDE8F08100F0ACF9801B052819
:1036300005D920206065032084F83500F2E7206872
:103640000068C007F0D12268116820480140D4E921
:1036500001031843D4E9033633431843636918431D
:10366000A3691843E3691843236A18430843616A4E
:10367000042903D1D4E90B131943084310602068CF
:103680004069666A20F0070130460E43012704288E
:103690000CD1A06A0643E06A40B12046FFF73AFB2E
:1036A00020B14020606584F83570BAE72068466133
:1036B0002046FFF71BFB94F85C203F21914081607E
:1036C000656584F835700020ACE700003F8010F09D
:1036D0002DE9F0410446866D90F83400002501285C
:1036E0000DD0012084F8340094F835700020012FAB
:1036F00007D084F8340002252846BDE8F081022076
:10370000FBE7022784F8357060652046FFF752FB1F
:1037100094F85C103F208840B0602068016841F058
:1037200016010160206C20B12068016841F0080199
:1037300001602068016841F001010160DCE70000E0
:1037400070B5044600F01EF90546601C02D004481E
:103750000078044400F016F9401BA042FAD370BD73
:103760008005002070470000044910B50A68024235
:1037700002D00860FFF7F6FF10BD0000143C0140C6
:103780002DE9F84FDFF8B8A10022012403254FF0FE
:103790000F090AF1040BAAF1040E00BF0B6804FA2A
:1037A00002F63340B34273D10F7907F00307012FBC
:1037B00001D0022F16D187684FEA420805FA08FCAB
:1037C00027EA0C07D1F80CC00CFA08FC4CEA070CED
:1037D000C0F808C04768B7430E79C6F30016964094
:1037E0003E4346600E79F643B6070DD0C7685600D3
:1037F00005FA06FC27EA0C07D1F808C00CFA06FC0B
:103800004CEA070CC0F80CC00E7906F00306022E35
:1038100010D1D60800EB8608D8F8206057074FEA89
:10382000D76C09FA0CF7BE430F6907FA0CF7374358
:10383000C8F8207006684FEA420C05FA0CF7BE4340
:103840000F7907F0030707FA0CF7374307604E6854
:1038500016F4403F6DD03B4E376847F480473760E1
:10386000366822F0030706F480460096364E07EBD2
:10387000060CDCF8086897073F0F09FA07F826EAF4
:103880000806DFF8C880404503D14FF000081EE06D
:103890004FE0DFF8BC80404502D14FF0010816E050
:1038A000DFF8B080404502D14FF002080FE0DFF8AA
:1038B000A880404502D14FF0030808E0DFF89C8063
:1038C000404502D14FF0040801E04FF0070808FA24
:1038D00007F848EA0608CCF80888DAF80060574686
:1038E000D1F804C09E435FEACC2C00D51E433E6055
:1038F000DBF800605F46D1F804C09E435FEA8C2C81
:1039000000D51E433E60DEF800607746D1F804C063
:103910009E435FEA8C3C00D51E433E60084F083F43
:103920003E68D1F804C09E435FEACC3C00D51E43FC
:103930003E60521C102AFFF431AFBDE8F88F000042
:10394000083C014044380240003001400000024081
:103950000004024000080240000C02400010024037
:103960000069084000D001207047426921EA020343
:103970000A4043EA0241816170470AB181617047A0
:103980000904FBE7014880687047000080050020BB
:1039900002488168027811448160704780050020E8
:1039A0000B4810B5016841F400710160016841F4F1
:1039B00080610160016841F480710160032000F0C2
:1039C00099F80F2000F006F800F04AF8002010BD2A
:1039D000003C024030B505461C4887B00024016811
:1039E00041F001010160006806A900F001000090AB
:1039F00001A800F0F1F900F01FFA1549154AB0FBD3
:103A0000F1F11548491E026040F2E732C0E9032493
:103A1000C0E90114846100F0BBFF040012D10E481C
:103A200000F0E4FF04000DD1192000F035F8102D4E
:103A300007D200222946192000F03CF8074805600B
:103A400000E0012407B0204630BD000044380240A9
:103A500040420F00000001409C0800208405002027
:103A60000C4882B0016841F480410160006800F4B4
:103A7000804000900748001F016841F080510160BC
:103A80000068002200F0805000900F21901E02B0CC
:103A900000F010B844380240002809DB00F01F0293
:103AA000012191404009800000F1E020C0F80011A0
:103AB00070470000F0B40E4B1B680C46C3F30223A2
:103AC000C3F10705042D00D90425191D072901D2CA
:103AD000002300E0DB1E012606FA05F1491E214005
:103AE00099409E40761E16403143F0BC04F00EBD56
:103AF0000CED00E0064900F0070208684FF6FF03EE
:103B0000184040EA0220034A104308607047000052
:103B10000CED00E00000FA050B4A136823F00303E4
:103B2000034313600948026842F00402026001295D
:103B300007D040BF20BF20BF016821F00401016011
:103B4000704730BFF8E700000070004010ED00E063
:103B50002DE9F843044600684FF00109C1074FF012
:103B6000000601D1400729D5DFF82081C8F8686038
:103B7000FFF708FF0746464D05E000BFFFF702FFCD
:103B8000C01B022859D828680001F7D4A068217BFF
:103B9000800140EA0170616808433D498431086052
:103BA000C8F86890FFF7EEFE074604E0FFF7EAFE6C
:103BB000C01B022841D828680001F7D5207880076B
:103BC00052D533484030016841F0805101600068AF
:103BD000304D00F080500090286840F480702860DC
:103BE000FFF7D0FE074604E0FFF7CCFEC01B02281B
:103BF00023D82868C005F7D5254D7035286810F4FE
:103C0000407020D0218A01F4407181421BD0286885
:103C1000214920F44070C1F800900E6028602868A7
:103C2000C00710D0FFF7AEFE064641F2883707E026
:103C3000FFF7A8FE801BB84202D90320BDE8F88335
:103C400028688007F4D521691148C1F301220830A2
:103C5000032A12D0016821F4F81101602868218A32
:103C6000C1F30B01084328602078000703D50B49F6
:103C7000207DC1F8E0010020E0E70268084B22F453
:103C8000F81219400A430260E8E7000000004742CA
:103C90000038024000700040400E4742001047428A
:103CA000FFFCFF0F2DE9F0470E46050065D0DFF859
:103CB0001481D8F80000F7B200F00700B04207D234
:103CC00088F80070D8F8000000F00700B04254D126
:103CD00028683D4C810712D5400703D5206840F481
:103CE000E05020602878000703D5206840F4604049
:103CF00020602068A96820F0F00008432060287840
:103D0000C0072DD0304968680839012812D0022830
:103D100013D0032811D00968890700292DDA2168FA
:103D200021F0030101432160FFF72CFE814641F29F
:103D3000883A0EE009688903EFE709688901ECE732
:103D4000FFF720FEA0EB0901514502D90320BDE891
:103D5000F0872068696800F00C00B0EB810FEFD1AC
:103D6000D8F80010404601F00701B14207D90770AA
:103D7000006800F00700B04201D00120E7E7287892
:103D8000400705D52068E96820F4E050084320602A
:103D90002878000706D52068296920F4604040EAA9
:103DA000C100206000F058F82168084AC1F30311EF
:103DB000515CC8400649086006480068FFF70AFEE3
:103DC0000020C4E7003C024008380240148C04087C
:103DD0008C050020840500200F2202600C4A136825
:103DE00003F003034360136803F0F0038360136878
:103DF00003F4E053C36012684FF4E05303EAD202C5
:103E000002610448006800F0070008607047000085
:103E100008380240003C024004480549006809682F
:103E2000044AC1F38221515CC84070478C050020D0
:103E300008380240248C04080448054900680968D1
:103E4000044AC1F34231515CC84070478C050020E0
:103E500008380240248C0408154810B5006810F09A
:103E60000C02144813D01449042A0FD0082A0ED18A
:103E70000F4C241F2268236802F03F025B0207D523
:103E80002068C0F38810A0FB010106E0084610BDC1
:103E90002168C1F38811A1FB00010023FDF74CFC50
:103EA0002168C1F30141491C4900B0FBF1F010BD8C
:103EB000083802400024F40040787D012DE9F84FD5
:103EC00004006ED02078DFF84C93C007A9F10405F8
:103ED0004AD009F104000168C1F38101012908D029
:103EE0000068C0F3810002280AD1D9F8000040021E
:103EF00006D52868800337D560680028E1D033E014
:103F00006068B0F5803F10D0B0F5A02F286810D0C1
:103F100020F480302860286820F4802028606068C1
:103F2000A8B1FFF72FFD06460DE0286840F4803069
:103F3000F4E740F480202860F7E700BFFFF722FD98
:103F4000801B642873D828688003F7D50CE0FFF73E
:103F500019FD064605E000BFFFF714FD801B64282D
:103F6000F0D828688003F7D42078DFF8AC82800787
:103F70004FF0000A3ED5A748001D016811F00C0F54
:103F800008D00068C0F3810002280BD1D9F80000E6
:103F9000400207D42868800716D5E068012800D1C0
:103FA00012E033E1E068B8B10120C8F80000FFF783
:103FB000E9FC064605E000BFFFF7E4FC801B022891
:103FC000C0D828688007F7D52868216920F0F80054
:103FD00040EAC10028600DE0C8F800A0FFF7D2FC5D
:103FE000064604E0FFF7CEFC801B02281FD8286895
:103FF0008007F7D42078000722D5864F874861696B
:10400000703771B101210160FFF7BCFC064604E086
:10401000FFF7B8FC801B022809D838688007F7D55D
:104020000EE0C0F800A0FFF7ADFC064605E082E018
:10403000FFF7A8FC801B02287DD838688007F7D4DA
:104040002078400768D5DFF8CCB100270BF13C0B96
:10405000DBF80000C0000BD4DBF8001041F0805109
:10406000CBF80010DBF80000012700F08050009032
:104070006B4E3068C00510D4306840F480703060FA
:10408000FFF780FC009005E0FFF77CFC0099401AE8
:10409000022850D83068C005F6D55E4EA0686C3650
:1040A00001280FD00528306810D020F001003060C2
:1040B000306820F004003060A068B8B1FFF762FCFF
:1040C00000900FE0306840F00100F4E740F0040099
:1040D0003060F7E7FFF756FC0099411A41F288304B
:1040E000814266D830688007F4D50EE0FFF74AFCBD
:1040F000009007E0FFF746FC0099411A41F2883032
:10410000814256D830688007F4D42FB1DBF8001014
:1041100021F08051CBF80010A069C8B33D49091DBA
:104120000968C1F3810102294AD00228504607D00C
:10413000C8F8600000E03CE0FFF724FC04463BE0E8
:104140004746C8F86000FFF71DFC064605E000BFC3
:10415000FFF718FC801B02282BD828688001F7D4B1
:10416000D4E907010843A16A2E4A490802EB01413C
:10417000626A41EA8211084394F82C1040EA016116
:10418000C9F8001001203866FFF7FCFB044606E082
:104190003EE000BFFFF7F6FB001B022809D82868A5
:1041A0008001F7D534E000BFFFF7ECFB001B0228CD
:1041B00002D90320BDE8F88F28688001F4D427E0F5
:1041C0000128F7D0D9F80000E26900F4800191429B
:1041D0001CD1226A00F03F01914217D147F6C0710D
:1041E000626A0140B1EB821F10D1A26A4FF0FF3327
:1041F00000F4403103EB5202B1EB024F06D194F8C8
:104200002C1000F07060B0EB016F01D00120D1E7FD
:104210000020CFE70438024000004742800E4742AA
:10422000007000400000FFFF0068503050F821008F
:1042300070470068503040F82120704710B5006882
:104240000B4641680D480140080CD870C1F30424A6
:104250005C7001F03F049C70C1F34231197052B997
:1042600002F004FED870587802F000FE587098787A
:1042700002F0FCFD9870002010BD00003FFFFF0021
:1042800010B50B460168896A596001680969C1F374
:104290000E019960006801680D480140C1F30540B6
:1042A0001870C1F306245C7001F07F049C70890DC6
:1042B000D97052B902F0DAFD1870587802F0D6FDC4
:1042C0005870987802F0D2FD9870002010BD000060
:1042D0007F7F7F0010B5040002D0607F10B106E040
:1042E000012010BD00202077204600F039F8022080
:1042F00060772168CA2048622168532048622046BE
:1043000002F0CAFD30BB20688168144A1140816008
:104310002168886862681043D4E904231A43104373
:1043200088602168E068086120680169228941EAA3
:1043300002410161204602F0D3FD58B921680A6CA0
:1043400022F480220A6421680A6CA3691A430A6471
:10435000012161772268FF21516210BDBFFF8FFFED
:1043600010B586B0044618216846FDF742FA09499F
:10437000206888420CD102200090C0010490684659
:10438000FFF7E6FB08B1FEF7BBFD0349012008601B
:1043900006B010BD002800403C0E474270B50446F0
:1043A000007F0B46012819D001262677022060776E
:1043B000B2B19878D97840EA014558781978000266
:1043C00040EA413005432168CA20486221685320F1
:1043D0004862204602F060FDD0B122E0022070BDAC
:1043E0005878C10603D500F0EF000A305870D8782D
:1043F00002F045FD0204587802F041FD42EA002235
:10440000987802F03CFD0243187842EA4035DAE73A
:104410000748054020684560204602F061FD00B96C
:1044200066772268FF2151620021217770BD00006C
:104430003FFFFF002DE9F0410446007F0D460128B3
:1044400023D04FF0010884F81C8002206077206898
:10445000002780684FEA4060D2B1002800DBEF708F
:10446000A878297840EA01466878E978000240EAAD
:10447000815006432168CA2048622168532048625F
:10448000204602F009FDB8B12CE00220BDE8F08121
:10449000002800DBEF70287802F0F1FC0204687855
:1044A00002F0EDFC42EA0022A87802F0E8FC0243A8
:1044B000E87842EA8056DDE70D480640206806604D
:1044C0002068816821F480218160D5E903010843D7
:1044D00021688A6810438860204602F001FD08B90F
:1044E00084F81D802268FF2151622777CEE7000003
:1044F0007F7F7F0070B504460068C16821F0A0018D
:10450000C160FFF73FFA05464FF47A7607E000BF37
:10451000FFF738FA401BB04201D9032070BD206874
:10452000C0688006F4D5002070BD704770B50400E7
:1045300009D0606A002540B125616561A56294F8E3
:10454000510040B10CE0012070BD6068B0F5827F81
:10455000F4D0E561F2E784F85050204600F044F8CA
:10456000022084F851002068016821F040010160B8
:10457000A088218900F4827001F404410843A189D4
:1045800001F400610843217C01F002010843217D10
:1045900001F001010843218B01F400710843217FE0
:1045A00001F03801084394F8201001F0800108431D
:1045B000218D01F40051084321680860A06904219D
:1045C00001EA104094F8241001F01001084321681A
:1045D00048602068C16921F40061C16165650120FE
:1045E00084F85100002070BD70B586B006461421D5
:1045F0006846FDF7FEF820493068884239D11F48E7
:104600000025016841F480510160006800F4805089
:1046100005901A481438016841F0020101600068F1
:10462000694600F002000590282000900220CDE9A4
:10463000010503200390052004901148FFF7A0F81E
:10464000114C104820604FF0806060604020C4E949
:104650000205000120614000C4E90505E56125620D
:1046600020466562FEF7CAFF08B1FEF749FCB46454
:10467000A66306B070BD000000300140443802401F
:104680000004024040640240840900202DE9F84FF4
:10469000044690F8500000271D461646894601281A
:1046A0000DD04FF0010B84F850B0FFF76BF9804646
:1046B00094F85100BA46012804D0022793E0022062
:1046C000BDE8F88FB9F1000F73D0002E71D0032030
:1046D00084F85100C4F854A0C4F83090A686E68649
:1046E000C4F838A0A4F83CA0A4F83EA0C4F844A0A4
:1046F000C4F840A0A068B0F5004F09D12068016857
:1047000021F0400101602068016841F480410160AE
:1047100020680168490603D4016841F04001016046
:10472000E068B0F5006F606803D030B3012E24D08C
:1047300041E008B1012E1CD1206B21680088C860BF
:1047400006E020688168890709D5216B0988C16066
:10475000206B801C2063E08E401EE08609E0FFF79E
:1047600011F9A0EB0800A84202D3681C01D031E087
:104770007DB3E08E0028E4D120E0206B2168007832
:10478000087306E020688168890709D5216B0978DC
:104790000173206B401C2063E08E401EE0860AE01F
:1047A000FFF7F0F8A0EB0800A84203D3681C02D082
:1047B00010E017E06DB1E08E0028E3D142462946B3
:1047C000204602F0DDFC08B120206065A06818B129
:1047D00006E0FFE7032706E02068C16880680090D4
:1047E000606D00B1012784F851B084F850A03846BC
:1047F00066E700002DE9F041044690F850000026DD
:10480000012809D0012784F8507094F85100002540
:10481000012804D002264EE00220BDE8F08189B1D3
:1048200082B1032084F8510065652163A286E28687
:10483000A56365642564A587E587A068B0F5004F8A
:1048400002D00BE0012636E02068016821F040012B
:1048500001602068016841F480410160A16C184842
:104860000864A16C1748C863A16C1748C864A06CA1
:104870000565E38E2268216B0C32A06CFEF728FFE1
:1048800038B1606D40F010006065012684F8517009
:1048900011E020680168490603D4016841F0400135
:1048A00001602068416841F0200141602068416852
:1048B00041F00201416084F850503046ADE70000FD
:1048C000137100081D710008F170000870477047EF
:1048D0004FF0E0210428086903D020F004000861AB
:1048E000704740F00400FAE710B5401EB0F1807F39
:1048F00001D3012010BD4FF0E02460610F2160174B
:1049000003F004FE0020A06107202061002010BDFC
:104910007047704770B590F83C20012A2CD00124D4
:1049200080F83C40022280F83D2003685A689D6868
:1049300022F070060A6832435A60104B02689A42AD
:104940000ED0B2F1804F0BD00D4B9A4208D00D4BD8
:104950009A4205D00C4B9A4202D00C4B9A4204D199
:10496000496825F080031943916080F83D4000219B
:1049700080F83C10084670BD022070BD0000014068
:104980000004004000080040000C004000400140CE
:1049900010B5040003D094F83D0010B107E00120E9
:1049A00010BD002084F83C00204600F01EF80220D4
:1049B00084F83D00211D206802F0E6FF012084F804
:1049C000460084F83E0084F83F0084F8400084F8F4
:1049D000410084F8420084F8430084F8440084F8DD
:1049E000450084F83D00002010BD704790F83D1050
:1049F000012901D001207047022180F83D10016893
:104A0000CA6842F00102CA6000680E4988420ED0AE
:104A1000B0F1804F0BD00C49884208D00B49884236
:104A200005D00B49884202D00A49884204D18168E6
:104A300001F00701062903D0016841F0010101607E
:104A400000207047000001400004004000080040C2
:104A5000000C004000400140704770B504460068FB
:104A600001694FF00005C943890715D4C168C943DE
:104A7000890711D4E91E016101202077206880692F
:104A80008007204602D0FFF7E7FF04E000F0C0F8FF
:104A9000204600F065F9257720680169C943490778
:104AA00017D4C168C943490713D46FF004010161E9
:104AB000022020772068806910F4407F204602D0D1
:104AC000FFF7CAFF04E000F0A3F8204600F048F921
:104AD000257720680169C943090716D4C168C9430D
:104AE000090712D46FF008010161042020772068C3
:104AF000C0698007204602D0FFF7AEFF04E000F057
:104B000087F8204600F02CF9257720680169C94311
:104B1000C90617D4C168C943C90613D46FF0100180
:104B20000161082020772068C06910F4407F20468A
:104B300002D0FFF791FF04E000F06AF8204600F091
:104B40000FF9257720680169C943C90708D1C168F1
:104B5000C943C90704D1891E0161204600F05AF9F2
:104B600020680169C943090609D4C168C943090617
:104B700005D46FF0800101612046FFF7C9FE20686F
:104B80000169C943490609D4C168C943490605D426
:104B90006FF040010161204600F056F9206801697C
:104BA000C94389060BD4C168C943890607D46FF08D
:104BB000200101612046BDE87040FFF7AABE70BD2C
:104BC00010B586B0044614216846FCF712FE0D4964
:104BD0002068884214D10C480021026842F0020289
:104BE0000260006800F002000590012000900220A1
:104BF000CDE90101CDE9031069460448FEF7C0FD87
:104C000006B010BD000400403038024000040240ED
:104C1000704770B5044690F83C0000260D46012808
:104C20000FD0012084F83C006AB1042A1DD0082A64
:104C30002FD00C2A3FD00126002084F83C003046BB
:104C400070BD022070BD206802F0F8FE2068816906
:104C500041F0080181612068816921F004018161CE
:104C6000206881692A69114311E0206802F00EFF73
:104C70002068816941F4006181612068816921F4C3
:104C800080618161206881692A6941EA022181612C
:104C9000D2E7206802F026FF2068C16941F00801D0
:104CA000C1612068C16921F00401C1612068C16946
:104CB0002A69114311E0206802F040FF2068C169B1
:104CC00041F40061C1612068C16921F48061C16162
:104CD0002068C1692A6941EA0221C161ACE710B5C7
:104CE000040003D094F83D0010B107E0012010BD8E
:104CF000002084F83C00204600F01EF8022084F8D2
:104D00003D00211D206802F03FFE012084F846008E
:104D100084F83E0084F83F0084F8400084F84100A5
:104D200084F8420084F8430084F8440084F8450085
:104D300084F83D00002010BD08B50068064988428F
:104D400008D10648016841F002010160006800F0E6
:104D50000200009008BD00000004004040380240FE
:104D60007047000010B50446022249B104290ED054
:104D7000082913D094F84100012816D0012010BD55
:104D800094F83E000128F9D184F83E200FE094F811
:104D90003F000128F2D184F83F2008E094F8400059
:104DA0000128EBD184F8402001E084F84120012261
:104DB000206802F035FE12492068884203D1426C17
:104DC00042F400424264206888420ED0B0F1804F25
:104DD0000BD00C49884208D00B49884205D00B49BA
:104DE000884202D00A49884204D1816801F0070153
:104DF000062903D0016841F001010160002010BDC7
:104E0000000001400004004000080040000C004089
:104E10000040014010B50068084988420DD1FEF7F6
:104E2000B7FD07480178491CC9B201701E2904D199
:104E30000021017003490120087010BD00000140ED
:104E40005A0000205B0000207047704710B50446F0
:104E50000068406994F83D10C0F3C010212911D1B9
:104E600080B12068143050E8001F21F0800140E834
:104E70000012002AF5D1606B08B1FEF793FA2046C4
:104E800003F04AF82068406994F83E10C0F380109F
:104E9000222911D180B12068143050E8001F21F080
:104EA000400140E80012002AF5D1A06B08B1FEF7DE
:104EB00079FA204603F009F8002010BD7047000081
:104EC000F8B5016804460868CA684B6910F00F0F0E
:104ED0004FF0000559D003F0010602F490773743F4
:104EE00065D0C10705D0D10503D5216C41F0010182
:104EF0002164410705D5D90703D0216C41F0020197
:104F00002164810705D5D90703D0216C41F0040144
:104F10002164010707D502F02001314303D0216C41
:104F200041F008012164216C00293AD0800604D5A3
:104F3000900602D5204602F0FDFF20684069216CF2
:104F4000C0F38010090700D460B3204602F0BDFF13
:104F500020684069400621D52068143050E8001FC1
:104F600021F0400140E80012002AF5D1A06BA8B161
:104F70006C490165A06BFEF75EFA002811D0A06BAA
:104F8000016D01B0BDE8F040084783060FD59306D8
:104F90000DD52046BDE8F84002F0CCBF2046FFF713
:104FA0008DFFF8BD2046FFF789FF2564F8BD266B0D
:104FB0002023012E79D1C60677D5D60675D5086887
:104FC000486800904869400640D5A16B0868406871
:104FD0000004000CEAD0A28D8242E7D9E085C869BE
:104FE000B0F5807F2DD020680C3050E8001F21F4F0
:104FF000807140E80012002AF5D12068143050E892
:10500000001F21F0010140E80012002AF5D12068BC
:10501000143050E8001F21F0400140E80012002A3F
:10502000F5D184F83E30256320680C3050E8001F2D
:1050300021F0100140E80012002AF5D1A06BFEF724
:10504000B1F9A08DE18D401A81B229E0A08DE18DEA
:10505000401A81B2E08D0028A8D00029A6D020688F
:105060000C3050E8002F22F4907240E80026002E09
:10507000F5D12068143050E8002F22F0010240E8FA
:105080000026002EF5D184F83E30256320680C30D0
:1050900050E8002F22F0100240E80023002BF5D149
:1050A0002046FFF7D2FEF8BDFFE705062BD5150613
:1050B00029D594F83D002128F5D1A068B0F5805F8E
:1050C00001D12069B0B1206A411C216221680078B9
:1050D0004860E08C401E0004000CE084E3D12068AE
:1050E000C16821F08001C1602068C16841F04001C1
:1050F000C160D8E7206A0088C0F308004860206AD1
:10510000801C2062E5E74006CDD55006CBD5CA68A5
:10511000204622F04002CA6084F83D3000F01BF9BE
:10512000C1E70000D57D000870B5040004D094F8F4
:105130003D00002510B106E0012070BD84F83C5010
:10514000204600F023F8242084F83D002068C16840
:1051500021F40051C160204602F04CFF2068016933
:1051600021F4904101612068416921F02A014161E7
:105170002068C16841F40051C1602564202084F892
:105180003D0084F83E00002070BD00002DE9F04194
:1051900086B0064614216846FCF72BFB3049306880
:1051A000884259D12F480024016841F01001016064
:1051B000006800F0100005902A481438016841F09A
:1051C000010101600068694600F0010005904FF49C
:1051D000C06000900220CDE9010403200390072065
:1051E00004902148FEF7CCFA214D20484FF000678B
:1051F0002860C5E901744FF48068C5E903486C6113
:10520000AC61EC612C6228466C62FEF7F7F908B1DC
:10521000FDF776FEB563AE63154D1448603530304A
:10522000E5E802074020A5E81101114845F81449B6
:105230006030AC61EC612C626C62FEF7DFF908B1A2
:10524000FDF75EFE7563002211462520AE63FEF772
:1052500031FC2520FEF720FC06B0BDE8F0810000FF
:1052600000100140443802400000024088640240BF
:10527000900A002090F83E30202B0ED159B152B147
:1052800090F83C30012B08D0012380F83C300023FB
:10529000036302F035BF012070470220704770475A
:1052A000704700002DE9F843044690F83D001F4682
:1052B00016460D4620284CD1C5B1BEB194F83C002D
:1052C000012846D0012084F83C004FF00008C4F8C3
:1052D0004080212084F83D00FEF754FBA6848146DF
:1052E000E684A068B0F5805F03D004E00120BDE84B
:1052F000F883206928B12E465FF0000584F83C80D1
:105300000EE00026FAE78021204602F043FFA0B914
:10531000AEB116F8010B21684860E08C401EE084B5
:10532000E08C4B464FF0000200970028EBD14FF085
:105330004001204602F02EFF30B10320D7E735F8B8
:10534000020BC0F30800E6E7202084F83D000020AF
:10535000CDE70220CBE7704700224FF4807101486F
:10536000FEF70BBB00000240012211020148FEF7CC
:1053700004BB00000000024070B586B014216846EE
:10538000FCF737FA0E480025016841F00101016081
:1053900000680C4E00F001004FF4807405902A461E
:1053A00021463046FEF7E9FA0121CDE90041CDE979
:1053B000021569463046FEF7E3F906B070BD0000FD
:1053C00030380240000002401CB500252E4E2F4F01
:1053D000DFF8BC90DFF8BC808DF804502C4600BF8D
:1053E00096F8300006EBC00151E9020178406940AF
:1053F000084345D128480123002201A900681FF075
:1054000075FDFDF717FD25480078C8BB99F8001019
:1054100031B389F8005029F083FD2920FDF7E2FC23
:105420004FF6FF7101EA002A2820FDF7DBFC40EA75
:105430000A0A2AF031FB41F288318A4510D929F055
:105440006FFD00231A4619465046FBF732FDC4B2E1
:10545000FDF780F9FDF756FDFDF75AFD2AF01CFB1C
:1054600098F80010A1420BD0224688F800400CA109
:10547000684603F017F80B486946006817F022FEEB
:1054800001201FF099FCABE7500B00209C0200208C
:105490005B00002098020020500000200200002045
:1054A00025640000A0020020FEE7000000B587B0E0
:1054B00014216846FCF79DF90A480021026842F071
:1054C00002020260006800F0020005904020009097
:1054D0000120CDE90201019069460348FEF750F929
:1054E00007B000BD3038024000000240044B08B154
:1054F000012200E0002240211846FEF73EBA0000DB
:105500000000024010B586B0044614216846FCF73E
:1055100070F92089009001200190029002200390F0
:1055200069462068FEF72CF960890090694660683A
:10553000FEF726F906B010BD70B506460824002512
:1055400001F07EFD13E06806050E0021304601F0F3
:1055500065FD022007F031FF0121304601F05EFDBC
:10556000012007F02AFF304601F061FD0543641E6B
:10557000E4B2E8D20021304601F050FD304601F09F
:105580007DFD284670BD10B50446002101F06DFD7B
:10559000012007F012FF0121204601F03FFD01200C
:1055A00007F00BFF0021204601F038FDBDE8104058
:1055B000012007F002BF000070B50C460646082522
:1055C00019E000BF01F02AFD022007F0F6FE04F00A
:1055D0008001304601F049FD012007F0EEFE600633
:1055E000040E012007F0E9FE0121304601F016FD0E
:1055F000012007F0E2FE6D1EEDB24FF000013046D3
:10560000E0D201F00BFDBDE87040022007F0D5BEEE
:1056100010B50446012101F028FD012007F0CDFE60
:105620000121204601F0FAFC012007F0C6FE00210E
:10563000204601F0F3FCBDE81040022007F0BDBE9B
:1056400010B50446012101F010FD022007F0B5FE5F
:105650000121204601F0E2FC012007F0AEFE00210E
:10566000204601F002FD012007F0A7FE00212046A0
:1056700001F0D4FCBDE81040012007F09EBE10B53B
:105680000446002101F0CAFC022007F096FE00212A
:10569000204601F0EAFC012007F08FFE01212046A0
:1056A00001F0BCFC012007F088FE0121204601F03A
:1056B000DCFCBDE81040012007F07FBE70B5054658
:1056C000052401F0BDFC0121284601F0A7FC05E0FE
:1056D000641EA4B2012007F070FE84B1284601F0D8
:1056E000A6FC0028F4D1284601F0C8FC0021284679
:1056F00001F094FC022007F060FE002070BD2846F7
:1057000001F0BCFC2846FFF7BAFF012070BD000085
:105710002DE9F0411D4617460C468046069EFFF7D0
:105720008FFF6006010E4046FFF746FF4046FFF739
:10573000C5FF28B14046FFF7A2FF0120BDE8F08178
:1057400039464046FFF738FF4046FFF7B7FF40466F
:10575000FFF776FF012000EB4400C1B24046FFF79F
:105760002BFF4046FFF7AAFF00246F1E0AE000BF90
:10577000FFF7E2FE3055BC4202DA4046FFF703FF76
:10578000641CE4B2AC424046F2D3FFF741FF40460E
:10579000FFF775FF0020D1E770B516460C460546A9
:1057A000FFF74EFF6006010E2846FFF705FF28466B
:1057B000FFF784FF31462846FFF7FEFE2846FFF735
:1057C0007DFF2846FFF73CFF012000EB4400C1B2FB
:1057D0002846FFF7F1FE2846FFF770FF2846FFF73F
:1057E000ABFE04462846FFF713FF2846FFF747FFA6
:1057F000204670BD2DE9F0411D4616460C46074671
:10580000FFF71EFF6006010E3846FFF7D5FE38464B
:10581000FFF754FF28B13846FFF731FF0120BDE8FC
:10582000F08131463846FFF7C7FE3846FFF746FF9E
:1058300029463846FFF7C0FE3846FFF73FFF384697
:10584000FFF71DFF012007F0B8FD0020E7E700008B
:105850001CB50024114D124E124FDFF84C808DF80C
:1058600000408DF8044001230022694628681FF09B
:10587000DFFA10B9052000F085FA0123002201A902
:1058800030681FF0D5FA20B93C8098F8000000F08D
:1058900079FA0A201FF090FAE5E70000480000209E
:1058A00050000020580000208200002038B5154C20
:1058B000154900252088401C80B22080097801EB22
:1058C0008101B0EB410F08D110488DF80050012341
:1058D0000022694600681FF009FB0D482188007806
:1058E00000EB8000B1EB400F0AD101208DF80000E1
:1058F0000346084825800022694600681FF0F6FA32
:1059000038BD000058000020980300204800002007
:10591000990300204C0000202DE9F04100241B4D8C
:105920001B4E012708B12F7001E02878E0B120213B
:105930003046FEF715F820B110213046FEF710F87A
:1059400090B103201FF038FA20213046FEF708F806
:1059500040B110213046FEF703F898B10224002030
:1059600028700FE00124FAE703201FF025FA202118
:105970003046FDF7F5FF28B110213046FDF7F0FF66
:1059800000B92F702046BDE8F08100007C050020A2
:10599000000002400EB50024194D1A4E8DF800404B
:1059A0008DF808408DF804400020FFF7B5FF01286E
:1059B0000ED002281AD11448144A90F8301000EB87
:1059C000C10151E9020150406140084312D0022058
:1059D0008DF8000001230022694628681FF086FA2E
:1059E0000123002201A930681FF080FA01201FF076
:1059F000E3F9D9E706480123002202A90068F3E78A
:105A00004400002050000020500B0020880000209F
:105A10004C00002030B587B014216846FBF7E9FE42
:105A200018480024016841F0010101600068164D2A
:105A300000F001000590202000904FF40410019028
:105A40000120029069462846FDF79AFE102000903A
:105A50004FF48810CDE9010469462846FDF790FE11
:105A6000002211461720FEF725F81720FEF714F83C
:105A7000002211460A20FEF71DF80A20FEF70CF856
:105A800007B030BD30380240000002402DE9F0413F
:105A900004461D4616460F462A2000F037FA2046D7
:105AA00000F024FA304600F021FA2B2000F02EFA04
:105AB000384600F01BFA284600F018FABDE8F0411D
:105AC0002C2000F023BA0000024900200968C863B6
:105AD00070470000040A002070B55D1A141A641C97
